:020000040800F2
:10000000280C002049080008710100087F01000841
:10001000870100088F010008970100080000000018
:100020000000000000000000000000009F01000828
:10003000AD01000800000000BB010008C901000874
:10004000910800089108000891080008910800082C
:10005000910800089108000891080008910800081C
:10006000910800089108000891080008910800080C
:1000700091080008910800089108000891080008FC
:1000800091080008910800089108000891080008EC
:1000900091080008910800089108000891080008DC
:1000A00091080008910800089108000891080008CC
:1000B00091080008910800089108000891080008BC
:1000C00091080008910800089108000891080008AC
:1000D000910800089108000891080008910800089C
:1000E000910800089108000891080008910800088C
:1000F000910800089108000891080008910800087C
:10010000910800089108000891080008910800086B
:10011000910800089108000891080008910800085B
:10012000910800089108000891080008910800084B
:1001300010B5054C237833B9044B13B10448AFF321
:1001400000800123237010BD040000200000000087
:10015000DC08000808B5034B1BB103490348AFF3A3
:10016000008008BD0000000008000020DC08000836
:1001700080B400AF00BFBD465DF8047B704780B41B
:1001800000AF00BFFDE780B400AF00BFFDE780B463
:1001900000AF00BFFDE780B400AF00BFFDE780B453
:1001A00000AF00BFBD465DF8047B704780B400AF70
:1001B00000BFBD465DF8047B704780B400AF00BF50
:1001C000BD465DF8047B704780B500AF00F0A6F82F
:1001D00000BF80BD80B500AF00F06EF840F2026055
:1001E00000F093F94FF48073032210210B4800F0C4
:1001F000A7F84FF4FA7000F07BF84FF480710748CD
:1002000000F06EF90346C3F10103DBB21A464FF466
:100210008071024800F049F900BFEAE70008014098
:1002200080B483B000AF03463960FB7197F90730A3
:10023000002B0BDA3B68DAB20C49FB7903F00F03B1
:10024000043B1201D2B20B441A7609E03B68DAB2E1
:10025000074997F907301201D2B20B4483F8002303
:1002600000BF0C37BD465DF8047B704700ED00E031
:1002700000E100E080B582B000AF78607B68013BB0
:10028000B3F1807F01D301230FE00A4A7B68013B71
:1002900053600F214FF0FF30FFF7C2FF054B0022E4
:1002A0009A60044B07221A60002318460837BD469F
:1002B00080BD00BF10E000E080B500AF0A4B1B68B6
:1002C0000A4AA2FB03239B091846FFF7D3FF034604
:1002D000002B01D000BFFDE700214FF0FF30FFF7FA
:1002E0009FFF00BF80BD00BF00000020D34D621003
:1002F00080B483B000AF7860074A7B68136000BFAA
:10030000054B1B68002BFBD100BF00BF0C37BD465F
:100310005DF8047B704700BF2000002080B400AF70
:10032000064B1B68002B04D0044B1B68013B034A9F
:10033000136000BFBD465DF8047B704720000020BD
:1003400080B489B000AFF860B9607A603B60002388
:10035000BB6100237B61BB6803F00F03BB61BB681B
:1003600003F01003002B14D07B68042B0DD1BB6964
:1003700043F00303BB61FB683C331A68FB683C3302
:1003800019463B6813430B6003E0BA697B6813436B
:10039000BB610023FB8339E0FB8B01229A403B6861
:1003A0001340002B2FD0FB681B687B61FB8B9B00ED
:1003B0000F2202FA03F3DB437A6913407B61FB8B64
:1003C0009B00BA6902FA03F37A6913437B61BB6845
:1003D000282B09D1FB8B01229A40FB681433194664
:1003E0003B6813400B600BE0BB68482B08D1FB8BCC
:1003F00001229A40FB68103319463B6813400B609A
:10040000FB687A691A60FB8B0133FB83FB8B072B3C
:10041000C2D90823FB833EE0FB8B01229A403B6854
:100420001340002B34D0FB6804331B687B61FB8BCB
:10043000083B9B000F2202FA03F3DB437A69134067
:100440007B61FB8B083B9B00BA6902FA03F37A6974
:1004500013437B61BB68282B09D1FB8B01229A4097
:10046000FB68143319463B6813400B600BE0BB6814
:10047000482B08D1FB8B01229A40FB6810331946A8
:100480003B6813400B60FB6804331A467B691360BA
:10049000FB8B0133FB83FB8B0F2BBDD900BF00BF50
:1004A0002437BD465DF8047B704780B485B000AF4B
:1004B000F860B9601346FB71FB79002B05D0FB682F
:1004C00010331A46BB68136004E0FB6814331A4605
:1004D000BB68136000BF1437BD465DF8047B7047EE
:1004E00080B483B000AF786039607B6808331A68E5
:1004F0003B681340002B01D0012300E00023184685
:100500000C37BD465DF8047B704780B483B000AF04
:100510000346FB80FB889B099BB203F1804303F5F4
:1005200004331968FB8803F01F0301229A40FB88FB
:100530009B099BB203F1804303F50433184641EA5B
:100540000203036000BF0C37BD465DF8047B7047B3
:1005500080B485B000AF78600023FB6002E0FB68E8
:100560000133FB607A6813469B0013445B001A4614
:10057000FB689A42F3D800BF00BF1437BD465DF850
:10058000047B704780B582B000AF534BD3F88830FE
:10059000514A43F47003C2F88830504B1B684F4AED
:1005A00043F00103136000BF4C4B1B6803F00203D0
:1005B000002BF9D04A4B1B6803F00C03082B64D1C5
:1005C00000237B6002E07B6801337B607B684F2BFC
:1005D000F9D9434B1B683B603B6823F0F0033B6059
:1005E0003B6843F080033B603D4A3B681360002357
:1005F0007B6002E07B6801337B607B684F2BF9D91D
:10060000374B1B683B603B6823F0F0033B603B6863
:1006100043F090033B60324A3B68136000237B60E9
:1006200002E07B6801337B607B684F2BF9D92C4B50
:100630001B683B603B6823F0F0033B603B6843F082
:10064000A0033B60264A3B68136000237B6002E006
:100650007B6801337B607B684F2BF9D9204B1B688B
:100660003B603B6823F0F0033B603B6843F0B00322
:100670003B601B4A3B68136000237B6002E07B68A1
:1006800001337B607B684F2BF9D9C820FFF760FFEF
:10069000134B1B68124A23F0030313600F4B1B68B4
:1006A0000E4A23F0847323F4803313600D4B4FF410
:1006B0001F021A60094B1B68084A23F48023136049
:1006C000074B00221A60084B00221A6000F00EF857
:1006D00000BF0837BD4680BD00ED00E000100240BD
:1006E00004100240081002402C10024080B500AFF8
:1006F00000F002F800BF80BD80B485B000AF0023D9
:10070000FB600023BB604B4B1B684A4A43F48033B9
:100710001360FB680133FB60464B1B6803F4003336
:10072000BB60BB68002B04D1FB684FF6FF7293429D
:10073000EFD1404B1B6803F40033002B01D100BF05
:10074000FDE73D4B1B683C4A43F0805313603B4B35
:100750001B683A4A43F440431360394B384A1B68DC
:100760001360374B364A1B681360354B1B68344A9D
:1007700043F480631360324B1B68314A23F44033E7
:1007800013602F4B1B682E4A43F4403313602C4BED
:100790001B682B4A23F0904323F470131360284BFB
:1007A0001B68274A43F0036343F480231360214B03
:1007B0001B68204A43F08073136000BF1D4B1B6809
:1007C00003F00073002BF9D01C4B1B681B4A43F449
:1007D0008033136000BF1B4B1B6803F48033002B76
:1007E000F9D0164B1B68154A43F40033136000BF61
:1007F000144B1B6803F40033002BF9D0104B1B681B
:100800007B607B6823F003037B607B6843F002031B
:100810007B600B4A7B68136000BF094B1B6803F0C9
:100820000803002BF9D000BF00BF1437BD465DF8A8
:10083000047B7047001002401C1002400070004012
:100840000410024004700040002103E00B4B5B5891
:10085000435004310A480B4B42189A42F6D30A4AD5
:1008600002E0002342F8043B084B9A42F9D3FFF719
:1008700089FE00F00FF8FFF7ADFC7047FC08000898
:1008800000000020040000200400002024000020BC
:10089000FEE7000070B50D4D0D4C641BA410002642
:1008A000A64209D10B4D0C4C00F018F8641BA410A3
:1008B0000026A64205D170BD55F8043B9847013685
:1008C000EEE755F8043B98470136F2E7F4080008D4
:1008D000F4080008F4080008F8080008F8B500BF9C
:1008E000F8BC08BC9E467047F8B500BFF8BC08BC11
:0408F0009E46704769
:0408F40055010008A2
:0408F80031010008C2
:0408FC00000E2707BC
:04000005080008499E
:00000001FF
